:020000040800F2
:100000000018002021020008351A00083F1A0008D5
:1000100000000000000000000000000000000000E0
:10002000000000000000000000000000451A000869
:1000300000000000000000004F1A0008591A0008D4
:10004000A1020008A1020008A1020008A102000804
:10005000A1020008F102000891070008A1020008AF
:10006000A1020008A1020008A1020008A1020008E4
:10007000A1020008A1020008A1020008A1020008D4
:10008000A50200080000000000000000A102000816
:1000900000000000A1020008A1020008A10200085F
:1000A00000000000A1020008A1020008A10200084F
:1000B000A102000800000000A1020008A10200083F
:1000C00010B5064C2378002B07D1054B002B02D02E
:1000D000044800E000BF0123237010BD3804002055
:1000E0000000000000330008044B10B5002B03D0C3
:1000F0000349044800E000BF10BDC04600000000F6
:100100003C04002000330008002243088B4274D3D3
:1001100003098B425FD3030A8B4244D3030B8B4208
:1001200028D3030C8B420DD3FF22090212BA030C11
:100130008B4202D31212090265D0030B8B4219D3F2
:1001400000E0090AC30B8B4201D3CB03C01A524112
:10015000830B8B4201D38B03C01A5241430B8B425A
:1001600001D34B03C01A5241030B8B4201D30B0343
:10017000C01A5241C30A8B4201D3CB02C01A52416A
:10018000830A8B4201D38B02C01A5241430A8B422D
:1001900001D34B02C01A5241030A8B4201D30B0216
:1001A000C01A5241CDD2C3098B4201D3CB01C01A30
:1001B000524183098B4201D38B01C01A524143093A
:1001C0008B4201D34B01C01A524103098B4201D328
:1001D0000B01C01A5241C3088B4201D3CB00C01A95
:1001E000524183088B4201D38B00C01A524143080D
:1001F0008B4201D34B00C01A5241411A00D2014632
:10020000524110467047FFE701B5002000F006F8A4
:1002100002BDC0460029F7D076E770477047C04658
:100220001348854613480168090E134A914205D1C7
:1002300012481349016013481349016013481449D7
:10024000144A002302E0D458C4500433C4188C422A
:10025000F9D3114A114C002301E013600432A24289
:10026000FBD302F041FF02F083FF01F0E9F8FEE763
:1002700000180020040000001F00000018100240B9
:10028000010000000000014000000000000000200C
:1002900034040020E433000838040020140B00204C
:1002A000FEE7000080B500AF0E4B00221A610E4B36
:1002B0001B79012B03D10D4B02229A610EE00B4BEF
:1002C00002229A62084B01221A71064B00225A62DE
:1002D000044B1A68034B01210A431A60C046BD460D
:1002E00080BDC046000400405404002000140048B3
:1002F00080B582B000AFCD4B01225A61BB1D0022F8
:100300001A80CB4B9B785B08DAB2C94B9A7090236A
:10031000DB051B690222134008D0C54B9B78802265
:1003200052421343DAB2C24B9A7006E0C04B9B783C
:100330007F221340DAB2BE4B9A70BD4B5B78002B24
:1003400006D0BB4B5B78013BDAB2B94B5A70E9E19E
:10035000B74B5B78002B00D0DDE1B54B07225A701C
:10036000B34B9A78B24BDA70B14B1B78052B00D99E
:10037000CDE19A00AF4BD3181B689F46AC4B9B78DE
:10038000812B0AD1AA4B01221A70A94B9A79A84B4A
:10039000DA70BB1D02221A80C1E1A54B9B78012BAC
:1003A00000D0BCE1A24B05221A70B8E1A04B02229A
:1003B0001A709F4B9A789E4BDA719D4B00225A72AD
:1003C0009B4B5A22DA70BB1D02221A80AAE1BB1D88
:1003D00002221A80964BDB79572B6BD000DDD9E0D7
:1003E000522B03D0532B00D1A7E0D3E0904B5B7A84
:1003F000062B51D89A00904BD3181B689F468C4B04
:100400005D22DA7050E08A4B9B789BB21B029AB255
:10041000874B5A81864B9A78854B1A7244E0844BFD
:100420005A89834B9B789BB2D3189AB2804B5A81DE
:100430007F4B1A7A7E4B9B785340DAB27C4B1A7210
:100440007B4B5C22DA707A4B8D2201219954BB1DC3
:100450007A4A1A8028E0764B5D22DA70BB1D774A13
:100460001A8021E0724B5B891B0A9BB2DAB2704B97
:10047000DA70BB1D714A1A8016E06D4B5B89DAB2E7
:100480006B4BDA70BB1D6D4A1A80694B04221A70DF
:10049000674B00225A7207E0654B05221A70BB1D9C
:1004A00000221A8000E0C0469023DB058022D200A3
:1004B0009A6273E05E4B5B7A032B18D02FDC022B21
:1004C00009D02CDC002B02D0012B2FD027E0584B79
:1004D0005D22DA702BE0564B9B789BB21B029AB2DE
:1004E000534B5A81524B9A78514B1A721FE0504B22
:1004F0005A894F4B9B789BB2D3189AB24C4B5A8176
:100500004B4B1A7A4A4B9B785340DAB2484B1A72DB
:10051000474B03221A70464B00225A7207E0444BA5
:1005200005221A70BB1D00221A8000E0C0469023ED
:10053000DB05802292009A6230E03D4B5B7A062B0D
:1005400020D89A003E4BD3181B689F46384B5D223B
:10055000DA701EE0364B5C22DA701AE0344B5D2212
:10056000DA7016E0324B0422DA7012E0304B0022CF
:10057000DA700EE02E4B0022DA700AE02C4B80225B
:10058000DA7006E02A4B05221A70BB1D00221A8081
:10059000C04603E0264B05221A70C046244B1B7848
:1005A000022B00D0BDE0224B5B7A0133DAB2204B44
:1005B0005A72B6E0BB1D02221A801D4B5B7A5BB2F9
:1005C000002B10DB1A4B5B7A1A00194B9B181A7B15
:1005D000174BDA70164B1A7A154BDB785340DAB2A8
:1005E000134B1A721BE0124B5B7A802B02D0812BCB
:1005F00005D008E00E4B1A7A0D4BDA700FE00C4B69
:100600004722DA700BE00A4B05221A70BB1D00224C
:100610001A809023DB058022D2009A61C046044BE9
:100620005B7A0133DAB2024B5A727BE0000401407C
:1006300054040020743300088C330008EE020000DC
:10064000A8330008BB1D02221A804E4B5B7A5BB2B6
:10065000002B10DB4B4B5B7A19004A4B9A78494BC5
:100660005B181A73474B1A7A464B9B785340DAB2A1
:10067000444B1A7244E0434B5B7A822B1AD037DC2E
:10068000802B02D0812B11D032E03E4B1A7A3D4BA9
:100690009B789A4203D13B4B47221A7202E0394BB6
:1006A0004E221A72374B5C22DA7029E0354B5D22FC
:1006B000DA7025E0334B5A898023DB019A4213D24A
:1006C000304B1A7A2F4BDA702E4B1B7A472B16D1F0
:1006D0002C4B8D22022199542A4B9B79082293435B
:1006E000DAB2284B9A710AE0264BFF22DA7006E054
:1006F000244B05221A70BB1D00221A8000E0C04660
:10070000204B5B7A0133DAB21E4B5A720AE01D4B62
:1007100000221A7006E0C04604E0C04602E0C0466F
:1007200000E0C046174B1B78002B12D0154BDB782E
:100730001A000123134003D0134B01229A6102E0F7
:10074000114B01229A620F4BDB785B08DAB20D4B3A
:10075000DA70BB1D1B88002B0FD00C4BBA1D128802
:100760005A62084B00221A71084B00221A61074B8B
:100770001A68064B01210A431A60C046BD4602B002
:1007800080BDC0465404002000140048000400400E
:1007900080B500AF194B04225A619023DB051B6919
:1007A000042213400ED0154B1A68144B01218A43C2
:1007B0001A60134B00221A709023DB058022D200AE
:1007C0009A6112E00D4B1A680C4B01210A431A6022
:1007D0000B4B07225A709023DB058022D2009A61CE
:1007E0009023DB05802292009A61064B01229A61D8
:1007F000044B02229A61C046BD4680BD0004014000
:10080000540400200014004880B586B000AF3B00BF
:10081000180001F01BFC3B0004221A603B005B7BCC
:100820005F2B28D03B005F225A7301F061FA031E50
:1008300014D101F091FA031E12D101F027FB031E1F
:1008400010D13B00180001F06FFB031E0CD101F02A
:100850009DFA031E0AD101F071FA08E0C04606E0D5
:10086000C04604E0C04602E0C04600E0C0463B008F
:10087000180001F0EBFB3B005B7B5F2B01D10123F8
:1008800000E000231800BD4606B080BD80B584B0EE
:1008900000AF7860396028E07B681A780E203B183A
:1008A0001A807B6801337B603B68013B3B603B689F
:1008B000002B0FD07B681B789BB21B0299B23B18B0
:1008C0003A1812888A181A807B6801337B603B686B
:1008D000013B3B60C0461A4B9B6802221340FAD092
:1008E000174B0E22BA181288DA603B68002BD3D15E
:1008F00004E0134BDA680E23FB181A80104B9A6839
:10090000C0235B011340F4D104E00D4BDA680E23E1
:10091000FB181A800A4B9B6880221340F5D104E033
:10092000074BDA680E23FB181A80054B9A68C02320
:10093000DB001340F4D1C046C046BD4604B080BDC4
:100940000030014080B584B000AF0200FB1D1A707A
:10095000C0460D4B9A68C0235B011340F9D10B4A86
:10096000FB1D1B781370C046074B9B680122134088
:10097000FAD0064A0F217B1812781A707B181B7860
:100980001800BD4604B080BD003001400C3001406D
:10099000B0B584B000AF786008001100FB1C021CE9
:1009A0001A70BB1C0A1C1A707B68012252421A6022
:1009B0000E257C19FF20FFF7C5FF03002370BB1C29
:1009C0001A78BB1C013A1A707B191B78C02213409D
:1009D00003D0BB1C1B78002BEAD1FB1C1B78012B1E
:1009E00025D10F23FB1800221A701BE07B681B68BF
:1009F0001A027B681A607B681B68FF2293431A0007
:100A00007B681A60FF20FFF79DFF03001A007B68D8
:100A10001B689A187B681A600F217B181A787B185C
:100A200001321A700F23FB181B78032BDED9C04646
:100A3000FF20FFF787FF0300FF2BF9D10E23FB18E0
:100A40001B781800BD4604B0B0BD000090B585B05D
:100A500000AF9023DB0510229A610F23FB180022C0
:100A60001A70904B1A688F4B40218A431A608D4B45
:100A700034221A608B4B1A688A4B40210A431A6051
:100A8000012001F03DF80023BB6005E0FF20FFF7E7
:100A900059FFBB680133BB60BB68FF2BF6D99023BD
:100AA000DB0510229A62BC1DFF20FFF74BFF0300FD
:100AB0002370BB1D1B78FF2BF5D17B4B0621180043
:100AC000FFF7E4FEFC1D3B00802200211800FFF729
:100AD0005FFF03002370FB1D1B78012B00D090E00B
:100AE000724B06211800FFF7D1FEFC1D3B0080224F
:100AF00001211800FFF74CFF03002370FB1D1B783A
:100B0000012B1FD06A4B06211800FFF7BFFEFC1D0A
:100B10003B00802201211800FFF73AFF03002370F9
:100B2000FB1D1B78012BEDD0FB1D1B78002B04D186
:100B30000F23FB1801221A706BE00F23FB1804220D
:100B40001A7066E03B68DB05DA0DD5235B009A423C
:100B500052D1584B06211800FFF798FEFC1D3B00B0
:100B6000802200211800FFF713FF03002370FB1DF4
:100B70001B78012B0DD14E4B06211800FFF786FE86
:100B8000FC1D3B00802201211800FFF701FF03003C
:100B90002370FB1D1B78012BDBD0FB1D1B78002B6A
:100BA00025D1454B06211800FFF770FEFC1D3B00C8
:100BB000802201211800FFF7EBFE03002370FB1DCC
:100BC0001B78002B0ED13A688023DB05134004D13B
:100BD0000F23FB1802221A701BE00F23FB180322BD
:100BE0001A7016E00F23FB1804221A7011E00F236D
:100BF000FB1804221A700CE00F23FB1804221A7051
:100C000007E00F22BB181B78FF2B02D0BB18042271
:100C10001A700F22BB181B78012B03D0BB181B784E
:100C2000022B15D1254B06211800FFF72FFEFC1DC6
:100C30003B00802200211800FFF7AAFE030023706A
:100C4000FB1D1B78002B03D00F23FB1804221A7006
:100C5000C046144B9B6880221340FAD19023DB05D9
:100C600010229A610F22BB181B78002B12D0BB18E0
:100C70001B78042B0ED00B4B1A680A4B40218A4379
:100C80001A60084B04221A60064B1A68054B402173
:100C90000A431A600F23FB181B781800BD4605B0E5
:100CA00090BDC04600300140383300084033000892
:100CB00060330008503300085833000848330008F8
:100CC000F0B589B000AFB9607A603B600F217B1846
:100CD000021C1A701F23FB1800221A707B681B6805
:100CE0003A689A4200D19AE07B683A681A607B18A9
:100CF0001B78012B03D07B181B78022B02D13B6899
:100D00005B023B600F22BB181B78002B00D18BE0ED
:100D1000BB181B78042B00D188E010217B185122CE
:100D20001A703B681B0EDAB27B185A703B681B0CBA
:100D3000DAB27B189A703B681B0ADAB27B18DA7059
:100D40003B68DAB27B181A717B18FF225A71902324
:100D5000DB0510229A6217257C19FF20FFF7F2FDB0
:100D6000030023707B191B78FF2BF4D110257B190E
:100D700006211800FFF78AFD1626BC197B19802270
:100D800000211800FFF704FE03002370BB191B7835
:100D9000002B4DD180231B01BB6117257C19FF203F
:100DA000FFF7D0FD03002370BB69013BBB617B19DA
:100DB0001B78FF2B02D1BB69002BEED1BB69002B46
:100DC00038D01723FB181B78FE2B35D10023BB61CD
:100DD0000CE0FF20FFF7B6FD03001A00BB681A7095
:100DE000BB680133BB60BB690133BB61BA69802357
:100DF0009B009A42EDD3FF20FFF7A4FD03001A00E9
:100E000010243B191A70FF20FFF79CFD03001A0005
:100E10003B195A701F23FB1801221A700DE01F2383
:100E2000FB1801221A7008E0C04606E0C04604E044
:100E3000C04602E0C04600E0C046C0460C4B9B687E
:100E400080221340FAD19023DB0510229A611F23E0
:100E5000FB181B78002B03D17B68012252421A60D9
:100E60001F23FB181B781800BD4609B0F0BDC04613
:100E700000300140F0B589B000AFB9607A603B60E6
:100E80000F217B18021C1A701F23FB1800221A70F6
:100E90007B181B78012B03D07B181B78022B02D107
:100EA0003B685B023B600F22BB181B78002B61D0B4
:100EB000BB181B78042B5FD010217B1858221A70A6
:100EC0003B681B0EDAB27B185A703B681B0CDAB217
:100ED0007B189A703B681B0ADAB27B18DA703B68A1
:100EE000DAB27B181A717B18FF225A719023DB0546
:100EF00010229A6217257C19FF20FFF723FD0300BB
:100F000023707B191B78FF2BF4D110257B19062148
:100F10001800FFF7BBFC1626BC197B1980220021A4
:100F20001800FFF735FD03002370BB191B78002B59
:100F300024D1FE20FFF706FD0023BB610AE0BB6859
:100F40001B781800FFF7FEFCBB680133BB60BB6970
:100F50000133BB61BA6980239B009A42EFD3FF2023
:100F6000FFF7F0FCFF20FFF7EDFC1F23FB18012229
:100F70001A7004E0C04602E0C04600E0C046C04629
:100F80000E4B9B6880221340FAD19023DB05102280
:100F90009A611F23FB181B78012B03D17B683A68E9
:100FA0001A6003E07B68012252421A601F23FB187B
:100FB0001B781800BD4609B0F0BDC04600300140A6
:100FC00090B58FB000AF786039603723FB180022EE
:100FD0001A7000237B623223FB18012252421A80CE
:100FE0007B6818787B68083319007B681A1D7B6A58
:100FF000FFF766FE031E00D102E27B68C74A9446F3
:1010000063441B88C64A934200D0FBE17A68E3231D
:101010005B00D35C002B06D07A68E3235B00D35CD3
:10102000802B00D07EE07A68EB235B00D35C002B42
:1010300006D07A68EB235B00D35C802B00D071E094
:101040007A68F3235B00D35C002B05D07A68F32326
:101050005B00D35C802B65D17A68FB235B00D35C9B
:10106000002B05D07A68FB235B00D35C802B59D121
:101070000023FB6253E0FB6A1B01C333FF337A6832
:10108000D3181B7A012B1AD0FB6A1B01C333FF3321
:101090007A68D3181B7A042B11D0FB6A1B01C33367
:1010A000FF337A68D3181B7A062B08D0FB6A1B0122
:1010B000C333FF337A68D3181B7A0E2B2CD1FB6A0B
:1010C0001B01C733FF337A68D3181B7A7B62FB6A34
:1010D0001B01C833FF337A68D3181B7A1B021A002E
:1010E0007B6A9B187B62FB6A1B01C933FF337A68FA
:1010F000D3181B7A1B041A007B6A9B187B62FB6A5D
:101100001B01CA33FF337A68D3181B7A1B061A00F7
:101110007B6A9B187B6205E0FB6A0133FB62FB6A1A
:10112000032BA8D97B6818787B68083319007B6883
:101130001A1D7B6AFFF7C4FD031E00D164E17B68C2
:10114000764A944663441B88754A934200D05DE119
:101150007B685B7D002B00D15AE17B681B7E002BF6
:1011600000D164E17B681B7E022B00D95FE17B68C4
:101170005B7FF82B00D04DE17B6824331B687A6AD3
:101180009A4200D048E17B682E229B5C292B00D03C
:1011900044E17B683E331B88624A934200D03FE1C2
:1011A0007B6840331B88604A934200D03AE17B68F9
:1011B00042229B5C362B00D036E17B685A7D22238D
:1011C000FB181A807B6816331A0034203B181288EB
:1011D0001A807B689B7E9BB21B0299B27B685B7E08
:1011E0009AB220243B198A181A807B681E331A0091
:1011F0001E217B1812881A803B181B887A6AD31824
:10120000BB617B181B885B001A00BB699B187B6164
:101210003B191B881B099BB21A007B699B183B6119
:101220000023BB6249E07B6818787B6808331900AB
:101230007B681C1D7A69BB6AD3182200FFF740FD4A
:101240000300012B43D10023FB622BE0FB6A5B010F
:1012500008337A68D31835490B22180001F0AAFF29
:101260000300FB60FB68002B19D1FB6A5B011C3398
:1012700008337A68D3181A6880239B029A420ED1E9
:10128000FB6A5B011A3308337A68D2183223FB18E1
:1012900012881A803723FB1801221A7005E0FB6AB6
:1012A0000133FB62FB6A0F2BD0D93723FB181B7865
:1012B000012B0ED0BB6A0133BB622023FB181B88B5
:1012C0001B099BB21A00BB6A9342ACD302E0C04632
:1012D00000E0C0463723FB181B78012B00D0A5E0A7
:1012E0003623FB1800221A703223FB181B88012BAF
:1012F00004D83723FB1800221A7080E03223FB1831
:101300001B88023B2222BA18128853431A003B69F9
:101310009B18BB620023FB6220E0C046060200006F
:1013200055AA00004641000054310000683300080F
:1013300036203B181A78B96AFB6AC9187B68823272
:101340009200D1503B181A783B1801321A703B18A2
:101350001B78002B09D0FB6A0133FB622223FB18A8
:101360001B88FA6A9A42E3D300E0C0463623FB1892
:101370001B78002B36D0BB69BB623423FB183222AA
:10138000BA1812881A8009E0BB6A0133BB623422A2
:10139000BB18BA181288013AFF3A1A8034243B1954
:1013A0001A8880235B009A42EED87B6818787B68A5
:1013B000083319007B681A1DBB6AFFF781FC030024
:1013C000012B0AD13B191B885B0008337A68D218BD
:1013D0003223FB1812881A8004E03723FB180022FE
:1013E0001A700CE03223FB181B88144A93421DD05C
:1013F0003623FB181B78002B00D075E716E015E0AC
:10140000C04614E0C04612E0C04610E0C0460EE000
:10141000C0460CE0C0460AE0C04608E0C04606E010
:10142000C04604E0C04602E0C04600E0C0463723A4
:10143000FB181B781800BD460FB090BDFFFF0000E1
:1014400090B5A1B000AF00F00FFB40217B18202227
:101450001A607B1801221A627B18180001F052F9F9
:1014600030217B1807221A607B1803225A607B18F0
:1014700000229A607B180022DA607B180021180095
:1014800001F09EFCEF4B9A69EE4B01210A439A61F1
:10149000EC4B9B6901221340BB61BB69E94BDA69E4
:1014A000E84B802149050A43DA61E64BDA6980237B
:1014B0005B0513407B617B69E24B5A69E14B8021FC
:1014C00089020A435A61DF4B5A6980239B02134009
:1014D0003B613B69DB4B5A69DA4B8021C9020A4305
:1014E0005A61D84B5A698023DB021340FB60FB68CA
:1014F000D44B5A69D34B8021C9030A435A61D14B5B
:101500005A698023DB031340BB60BB68CD4BDA69AB
:10151000CC4B02210A43DA61CA4BDB690222134039
:101520007B607B68C74B9A69C64B802149010A439F
:101530009A61C44B9A6980235B0113403B603B680E
:101540001C217B18C022D2001A600C003B1901221A
:101550005A603B1901229A603B190322DA603A195A
:101560009023DB051100180000F060FF9023DB05DD
:101570008022D2009A619023DB05802292009A613A
:101580003B1907221A603B1900225A603B190122BD
:101590009A603B190322DA603A199023DB051100A7
:1015A000180000F043FF3B1901221A603B19112279
:1015B0005A603B1901229A603B190322DA603B19F9
:1015C000A14A1900100000F031FF9F4B01229A61DF
:1015D0003B1902221A603B1911225A603B19012261
:1015E0009A603B190322DA603B19974A19001000F0
:1015F00000F01CFF944B02229A613B1910221A60E2
:101600003B1901225A603B1901229A603B190322BF
:10161000DA603A199023DB051100180000F006FF8C
:101620009023DB0510229A613B1902221A603B19B4
:1016300000225A603B1901229A603B190322DA60AA
:101640003B19824A1900100000F0F0FE21007B18BF
:10165000E0221A607B1802225A607B1800221A616D
:101660007B1801229A607B180322DA607A18902393
:10167000DB051100180000F0D9FE754B34221A600A
:10168000734B744A5A60744B2F229A62724B734A9E
:10169000DA62714B00229A616F4B0022DA616E4B65
:1016A00000221A626C4B00229A606B4B0122DA60B6
:1016B000694B18221A60684B00225A60684B9A687E
:1016C000674B68490A409A60674BDA68664B0421A9
:1016D0000A43DA60644B9A68634B05210A439A60B7
:1016E000624B00221A70614B00225A705F4B00223D
:1016F0009A705E4B0022DA705C4B00221A715B4BD1
:1017000008229A71594B8C2200219954574B8D22F3
:1017100000219954554B9021012252425A500023E6
:10172000FB6709E0514A9421FB6FD3185B18002234
:101730001A70FB6F0133FB67FA6F80239B009A429C
:10174000F0D30023FB670AE0484AFB6FA4339B00F9
:10175000D318043300221A60FB6F0133FB67FB6F61
:10176000FF2BF1D900220021052000F08FFA05207F
:1017700000F0A1FA00220021062000F087FA0620DE
:1017800000F099FA00220021102000F07FFA1020CA
:1017900000F091FAFFF738F82C4B1B690222134036
:1017A0006AD1324B8C229B5C002B00D098E09023B6
:1017B000DB058022D2009A629023DB058022920012
:1017C0009A61FFF743F903001900284B8C229954C2
:1017D000264B8C229B5C042B28D0254A254B1100DC
:1017E0001800FFF7EDFB0300012B10D11E4B1A6808
:1017F0001D4B04210A431A609023DB058022D2008E
:101800009A619023DB05802292009A6168E0174B71
:101810008C22042199549023DB058022D2009A6205
:101820009023DB05802292009A6259E09023DB0529
:101830008022D2009A629023DB05802292009A6275
:101840004EE0C0460010024000140048000400486A
:10185000003001400417000000040040FFFF0000BA
:1018600000000140F0F0FFFF00040140540400209C
:1018700068330008E00400206A4B8C229B5C002B3C
:1018800024D0694B1A68684B05218A431A60654B5E
:1018900000221A70634B00225A70624B00229A7029
:1018A000604B0022DA705F4B00221A715D4B0822F8
:1018B0009A715C4B8C22002199545A4B8D22002145
:1018C0009954584B9021012252425A509023DB05E3
:1018D0008022D2009A619023DB05802292009A61D7
:1018E000504B8C229B5C002B00D155E74D4B8C223A
:1018F0009B5C042B00D14FE74A4B8D229B5C022B53
:101900004ED1484B5B899B059B0DBB67BB6F9A080B
:1019100077217B181A70BB6FDA01C0235B0013407C
:10192000BB67404B8C22985C7B181B783D4AA433E4
:101930009B00D31804331B683C4A3D49FFF7C0F9AC
:101940000023FB6710E0BA6FFB6FD3183549FA6FBD
:101950008A180C321078334A9421D3185B18021C71
:101960001A70FB6F0133FB67FB6F7F2BEBD92D4B9D
:101970008C22985C7723FB181B782A4AA4339B009F
:10198000D31804331B68294A2949FFF773FA9023B7
:10199000DB05802292009A61224B8D22002199540E
:1019A000204B8D229B5C012B00D0F5E61D4B5B8903
:1019B0009B059B0DBB67BB6F9A0877217B181A703C
:1019C000BB6FDA01C0235B001340BB67154B8C2251
:1019D000985C7B181B78134AA4339B00D3180433FC
:1019E0001B68124A1249FFF76BF90023FB6710E0EE
:1019F000BA6FFB6FD3180B4A9421D3185B18197870
:101A0000084AFB6FD3180C330A1C1A70FB6F0133A2
:101A1000FB67FB6F7F2BEBD9024B8D220021995482
:101A2000BAE6C0465404002000040140E40400204B
:101A3000E804002080B500AFC046BD4680BD80B53B
:101A400000AFFEE780B500AFC046BD4680BD80B5A3
:101A500000AFC046BD4680BD80B500AF00F03AF88B
:101A6000C046BD4680BD000080B500AF074B1A6878
:101A7000064B10210A431A60002000F00EF800F017
:101A800007F800231800BD4680BDC0460020024074
:101A900080B500AFC046BD4680BD80B582B000AF06
:101AA000786001F017FB0200FA2399001000FEF79E
:101AB0002BFB0300180000F00EF9796801235B424C
:101AC0000022180000F0E2F800231800BD4602B022
:101AD00080BD000080B500AF034B1B685A1C024B51
:101AE0001A60C046BD4680BDE80A002080B500AF40
:101AF000024B1B681800BD4680BDC046E80A0020A6
:101B000080B584B000AF7860FFF7F0FF0300BB60E2
:101B10007B68FB60FB68013302D0FB680133FB602C
:101B2000C046FFF7E3FF0200BB68D31AFA689A4287
:101B3000F7D8C046C046BD4604B080BD80B582B06F
:101B400000AF0200FB1D1A70FB1D1B781A001F233B
:101B50001A40044B012191400A001A60C046BD465C
:101B600002B080BD00E100E090B583B000AF02009C
:101B70003960FB1D1A70FB1D1B787F2B32D92F4A51
:101B8000FB1D1B7819000F230B40083B9B080633F5
:101B90009B00D31804331B68FA1D1278110003222E
:101BA0000A40D200FF2191400A00D2431A4011009E
:101BB0003B689B01FF221A40FB1D1B781800032382
:101BC0000340DB009A401D48FB1D1B781C000F23BF
:101BD0002340083B9B080A4306339B00C318043389
:101BE0001A6027E0164AFB1D1B785BB29B08C033C6
:101BF0009B009B58FA1D1278110003220A40D20064
:101C0000FF2191400A00D2431A4011003B689B011A
:101C1000FF221A40FB1D1B78180003230340DB0042
:101C20009A400748FB1D1B785BB29B080A43C033F0
:101C30009B001A50C046BD4603B090BD00ED00E0C9
:101C400000E100E080B582B000AF78607B685A1E8A
:101C500080235B049A4201D3012310E00A4B7A6887
:101C6000013A5A6001235B4203211800FFF77CFF11
:101C7000054B00229A60044B07221A6000231800CB
:101C8000BD4602B080BDC04610E000E080B584B023
:101C900000AFB9607A600F217B18021C1A70BA6815
:101CA0007B181B785BB211001800FFF75DFFC04680
:101CB000BD4604B080BD80B582B000AF0200FB1D00
:101CC0001A70FB1D1B785BB21800FFF737FFC04688
:101CD000BD4602B080BD80B582B000AF78607B6841
:101CE0001800FFF7AFFF03001800BD4602B080BD2B
:101CF00080B582B000AFFB1D00221A700C4B1B692F
:101D0000802213400DD00A4B0A4A5A60084B0A4AF7
:101D10005A60074B1B698022134002D0FB1D012231
:101D20001A70FB1D1B781800BD4602B080BDC0466E
:101D30000020024023016745AB89EFCD80B500AF9D
:101D4000044B1A69034B80210A431A6100231800CF
:101D5000BD4680BD0020024080B500AF084B1A6927
:101D600080239B00134007D1054B064A9A60044B21
:101D7000054A9A60002300E001231800BD4680BD9B
:101D80000020024023016745AB89EFCD80B500AF4D
:101D9000044B1A69034B04490A401A6100231800D6
:101DA000BD4680BD00200240FFFDFFFF80B584B02E
:101DB00000AF7860FFF79AFE0300FB600FE07B68DE
:101DC00001330CD07B68002B07D0FFF78FFE020099
:101DD000FB68D31A7A689A4201D203231FE0124BA0
:101DE000DB6801221340012BE9D00F4BDB68202276
:101DF0001340202B02D10C4B2022DA600A4BDB6807
:101E000010221340102B05D0074BDB68042213402F
:101E1000042B03D100F00AF8012300E0002318008E
:101E2000BD4604B080BDC0460020024080B582B0EF
:101E300000AF00237B60134BDB6810221340102B94
:101E400009D1114BDB6902221A430F4BDA617B681F
:101E5000102213437B600B4BDB6804221340042BDE
:101E600009D1094BDB6901221A43074BDA617B6810
:101E7000042213437B60034B7A68DA60C046BD4698
:101E800002B080BD00200240F00A002090B583B06F
:101E900000AFBB1DAA221A70FB1D01221A7000F0B0
:101EA0009FFA0200BB1D1A70FC1D1C4B1800FFF7A7
:101EB0007DFF03002370FB1D1B78002B27D1184BDF
:101EC0000022DA61174B1A69164B20210A431A6166
:101ED000144B1A69134B40210A431A61FC1D0F4B26
:101EE0001800FFF763FF030023700E4B1A690D4BB8
:101EF00020218A431A61FB1D1B78002B07D1FC1D92
:101F0000BB1D1B78180000F081F903002370FB1D36
:101F10001B781800BD4603B090BDC04650C30000FA
:101F2000F00A002000200240B0B584B000AF786015
:101F30000F23FB1801221A70434B1B7E012B01D18A
:101F400002237DE0404B01221A767B681B68012248
:101F5000134021D07B685B68012B09D17B689B68AB
:101F60000F22BC18180000F08DF80300237008E061
:101F70007B689B680F22BC18180000F0E5F803008E
:101F800023700F217B181B78002B05D02E4B0022CD
:101F90001A767B181B7853E07B681B68022213407B
:101FA00013D07B681B7B0F257C19180000F02EF9DD
:101FB0000300237029007B181B78002B05D0224BCF
:101FC00000221A767B181B783AE07B681B68042293
:101FD000134013D07B685B7B0F257C19180000F041
:101FE00075F90300237029007B181B78002B05D09E
:101FF000154B00221A767B181B7821E07B681B6842
:102000000822134016D07B681A697B681B7D0F2558
:102010007C191900100000F099F9030023702900C1
:102020007B181B78002B05D0074B00221A767B18F3
:102030001B7805E0044B00221A760F23FB181B784F
:102040001800BD4604B0B0BDF00A002080B582B0D3
:1020500000AF78607B6807221A6000F0B7F90200D1
:102060007B689A6000F0BCF90300DAB27B681A73EF
:1020700000F0D0F903001A007B685A73C046BD46D1
:1020800002B080BDF0B585B000AF78600F243B1979
:1020900000221A700C26BB19012252421A8000F04D
:1020A00095F902007B68DB4313407B607B689AB242
:1020B000BB19FF210A401A8025003C191E4B18004D
:1020C000FFF774FE030023707B191B78002B2CD1C3
:1020D0001A4B0022DA617C19FFF7D8FE0300237047
:1020E00028007B191B78002B1FD1154B1A69144B44
:1020F00010210A431A61BB191B88FF2B0FD0114B0B
:102100001B899BB20F49BA19128813409BB20B81ED
:102110003C18094B1800FFF749FE03002370084BD9
:102120001A69074B10218A431A610F23FB181B7889
:102130001800BD4605B0F0BD50C30000F00A0020F5
:102140000020024000F8FF1FF0B585B000AF7860B6
:102150000F243B1900221A700C26BB19012252428F
:102160001A8000F033F902007B6813437B607B68C0
:102170009AB2BB19FF210A401A8025003C191F4B57
:102180001800FFF713FE030023707B191B78002B48
:102190002CD11B4B0022DA617C19FFF777FE03007C
:1021A000237028007B191B78002B1FD1154B1A694F
:1021B000144B10210A431A61BB191B88FF2B0FD047
:1021C000114B1B899AB21049BB191B8813439BB250
:1021D0000B813C18094B1800FFF7E8FD0300237042
:1021E000084B1A69074B10218A431A610F23FB1809
:1021F0001B781800BD4605B0F0BDC04650C30000B6
:10220000F00A00200020024000F8FF1FB0B584B0A3
:1022100000AF0200FB1D1A700F257B1900221A70F7
:102220007C19264B1800FFF7C1FD0300237028001E
:102230003B181B78002B39D1214B0022DA61214B4E
:102240001A69204B20210A431A611E4B1A691D4B43
:1022500040210A431A6105003C18184B1800FFF78B
:10226000A5FD03002370174B1A69164B20218A43E2
:102270001A6128003B181B78002B17D1114B1A69E3
:10228000104B10210A431A610F4AFB1D1B789BB2A9
:1022900013803C18094B1800FFF788FD03002370DA
:1022A000084B1A69074B10218A431A610F23FB1848
:1022B0001B781800BD4604B0B0BDC04650C3000036
:1022C000F00A00200020024000F8FF1FB0B584B0E3
:1022D00000AF0200FB1D1A700F257B1900221A7037
:1022E0007C19164B1800FFF761FD030023702800CE
:1022F0003B181B78002B1AD1114B0022DA61114BCD
:102300001A69104B10210A431A610F4AFB1D1B78F2
:102310009BB253803C18094B1800FFF747FD0300A0
:102320002370084B1A69074B10218A431A610F2347
:10233000FB181B781800BD4604B0B0BD50C30000A8
:10234000F00A00200020024000F8FF1FB0B584B062
:1023500000AF78600A00FB1C1A700F257B19012260
:102360001A707C19164B1800FFF720FD030023702C
:1023700028003B181B78002B1AD1124B0022DA617F
:10238000114B1A69104B10210A431A617B68FA1C21
:10239000127892B21A803C18094B1800FFF706FD1C
:1023A00003002370084B1A69074B10218A431A61F6
:1023B0000F23FB181B781800BD4604B0B0BDC04603
:1023C00050C30000F00A00200020024080B500AF9A
:1023D000024B1B6A1800BD4680BDC046002002406B
:1023E00080B582B000AF0A4BDB69062213407B60E8
:1023F0007B68002B01D1AA2306E07B6804221340EE
:1024000001D0CC2300E0BB231800BD4602B080BD44
:102410000020024080B500AF034BDB691B0ADBB232
:102420001800BD4680BDC0460020024080B586B081
:1024300000AF7860396000237B610023FB600023DC
:102440003B6149E13B681B6801217A6991400A00C0
:102450001340FB60FB68002B00D13AE13B685B68EE
:10246000022B03D03B685B68122B23D17B69DA080F
:102470007B6808329200D3583B617B690722134086
:102480009B000F229A401300DA433B6913403B61E3
:102490003B681A697B6907210B409B009A40130037
:1024A0003A6913433B617B69DA087B680832920022
:1024B0003969D1507B681B683B617B695B000322F3
:1024C0009A401300DA433B6913403B613B685B6809
:1024D00003221A407B695B009A4013003A69134358
:1024E0003B617B683A691A603B685B68012B0BD0E3
:1024F0003B685B68022B07D03B685B68112B03D0FD
:102500003B685B68122B30D17B689B683B617B69C1
:102510005B0003229A401300DA433B6913403B619E
:102520003B68DA687B695B009A4013003A691343A1
:102530003B617B683A699A607B685B683B6101221A
:102540007B699A401300DA433B6913403B613B6867
:102550005B681B0901221A407B699A4013003A69A3
:1025600013433B617B683A695A607B68DB683B6177
:102570007B695B0003229A401300DA433B691340F6
:102580003B613B689A687B695B009A4013003A693B
:1025900013433B617B683A69DA603B685A68802381
:1025A0005B05134000D194E0514B9A69504B0121D7
:1025B0000A439A614E4B9B6901221340BB60BB6882
:1025C0004C4A7B699B0802339B009B583B617B69AB
:1025D000032213409B000F229A401300DA433B6909
:1025E00013403B617A689023DB059A420DD07B68EB
:1025F000414A934207D07B68404A934201D102236B
:1026000004E0052302E0012300E000237A690321AE
:102610000A40920093403A6913433B6135497B6914
:102620009B0802339B003A695A50354B1B683B614B
:10263000FB68DA433B6913403B613B685A6880237F
:102640005B02134003D03A69FB6813433B612C4B98
:102650003A691A602A4B5B683B61FB68DA433B6965
:1026600013403B613B685A6880239B02134003D0B0
:102670003A69FB6813433B61214B3A695A60204B2E
:102680009B683B61FB68DA433B6913403B613B68F5
:102690005A6880235B03134003D03A69FB681343F5
:1026A0003B61174B3A699A60154BDB683B61FB68ED
:1026B000DA433B6913403B613B685A6880239B03C4
:1026C000134003D03A69FB6813433B610C4B3A69F2
:1026D000DA607B6901337B613B681A687B69DA40A9
:1026E000131E00D0AEE6C046C046BD4606B080BD53
:1026F00000100240000001400004004800080048AB
:102700000004014080B586B000AF786000233B61D3
:102710007B681B680122134000D18DE0C44B5B68CD
:102720000C221340042B0ED0C14B5B680C221340CB
:10273000082B16D1BE4B5A68C0235B021A40802377
:102740005B029A420DD1BA4B1A6880239B02134058
:1027500000D170E07B685B68002B00D06BE0012348
:1027600027E37B685B68012B07D1B14B1A68B04B3C
:10277000802149020A431A602FE07B685B68002BC6
:102780000CD1AB4B1A68AA4BAA490A401A60A84B55
:102790001A68A74BA8490A401A601EE07B685B686C
:1027A000052B0ED1A24B1A68A14B8021C9020A4306
:1027B0001A609F4B1A689E4B802149020A431A6097
:1027C0000BE09B4B1A689A4B9A490A401A60984B47
:1027D0001A68974B98490A401A607B685B68002B1F
:1027E00014D0FFF783F903003B6108E0FFF77EF99F
:1027F00002003B69D31A642B01D90323D9E28C4B25
:102800001A6880239B021340F0D015E0FFF76EF9A1
:1028100003003B6108E0FFF769F902003B69D31A46
:10282000642B01D90323C4E2814B1A6880239B02E5
:102830001340F0D100E0C0467B681B6802221340C1
:1028400000D16CE07A4B5B680C2213400ED0784BC1
:102850005B680C221340082B1FD1754B5A68C023AC
:102860005B021A4080231B029A4216D1704B1B68F0
:102870000222134005D07B68DB68012B01D00123C5
:1028800097E26B4B1B68F822934319007B681B6926
:10289000DA00674B0A431A6041E07B68DB68002B73
:1028A00024D0634B1A68624B01210A431A60FFF778
:1028B0001DF903003B6108E0FFF718F902003B69CE
:1028C000D31A022B01D9032373E2594B1B6802224E
:1028D0001340F1D0564B1B68F822934319007B68D4
:1028E0001B69DA00524B0A431A6018E0504B1A6811
:1028F0004F4B01218A431A60FFF7F8F803003B6150
:1029000008E0FFF7F3F802003B69D31A022B01D964
:1029100003234EE2464B1B6802221340F1D17B6831
:102920001B680822134036D07B68DB69002B19D066
:102930003F4B5A6A3E4B01210A435A62FFF7D6F8D1
:1029400003003B6108E0FFF7D1F802003B69D31AAE
:10295000022B01D903232CE2354B5B6A0222134080
:10296000F1D018E0324B5A6A314B01218A435A6246
:10297000FFF7BCF803003B6108E0FFF7B7F802007F
:102980003B69D31A022B01D9032312E2284B5B6A5D
:1029900002221340F1D17B681B680422134000D14E
:1029A000B4E017203B1800221A70214BDA6980230B
:1029B0005B05134010D11E4BDA691D4B8021490580
:1029C0000A43DA611A4BDA6980235B051340FB6026
:1029D000FB683B1801221A70184B1A6880235B00B1
:1029E00013401AD1154B1A68144B802149000A4331
:1029F0001A60FFF77BF803003B6108E0FFF776F809
:102A000002003B69D31A642B01D90323D1E10B4B9C
:102A10001A6880235B001340F0D07B689B68012B11
:102A20000ED1034B1A6A024B01210A431A6235E0A8
:102A300000100240FFFFFEFFFFFFFBFF00700040A1
:102A40007B689B68002B0CD1CA4B1A6AC94B0121C9
:102A50008A431A62C74B1A6AC64B04218A431A6218
:102A60001CE07B689B68052B0CD1C24B1A6AC14BDA
:102A700004210A431A62BF4B1A6ABE4B01210A4362
:102A80001A620BE0BB4B1A6ABA4B01218A431A62E5
:102A9000B84B1A6AB74B04218A431A627B689B6859
:102AA000002B14D0FFF722F803003B6109E0FFF789
:102AB0001DF802003B69D31AAF4A934201D90323A0
:102AC00077E1AC4B1B6A02221340F0D013E0FFF712
:102AD0000DF803003B6109E0FFF708F802003B69CD
:102AE000D31AA54A934201D9032362E1A14B1B6A81
:102AF00002221340F0D11723FB181B78012B05D1BC
:102B00009C4BDA699B4B9D490A40DA617B681B68E4
:102B10001022134063D07B685B69012B2AD1954B4F
:102B20005A6B944B04210A435A63924B5A6B914B54
:102B300001210A435A63FEF7D9FF03003B6108E015
:102B4000FEF7D4FF02003B69D31A022B01D90323FD
:102B50002FE1884B5B6B02221340F1D0854B5B6BFE
:102B6000F822934319007B689B69DA00814B0A4382
:102B70005A6334E07B685B69053311D17D4B5A6B36
:102B80007C4B04218A435A637A4B5B6BF822934354
:102B900019007B689B69DA00764B0A435A631EE092
:102BA000744B5A6B734B04210A435A63714B5A6B33
:102BB000704B01218A435A63FEF798FF03003B6183
:102BC00008E0FEF793FF02003B69D31A022B01D9FC
:102BD0000323EEE0674B5B6B02221340F1D17B686D
:102BE0001B68202213405CD0624B5B680C221340B0
:102BF0000C2B0ED05F4B5B680C221340082B14D1BA
:102C00005C4B5A68C0235B021A40C0235B029A42A5
:102C10000BD1584B5A6B80235B02134040D07B682A
:102C20001B6A012B3CD00123C3E07B681B6A002B8D
:102C30001BD0504B5A6B4F4B802149020A435A63B9
:102C4000FEF754FF03003B6108E0FEF74FFF020070
:102C50003B69D31A022B01D90323AAE0454B5A6BD7
:102C600080235B021340F0D01BE0424B5A6B414B78
:102C700043490A405A63FEF739FF03003B6108E00D
:102C8000FEF734FF02003B69D31A022B01D903235C
:102C90008FE0384B5A6B80235B021340F0D100E089
:102CA000C0467B685B6A002B00D181E0314B5B68DA
:102CB0000C221340082B00D178E07B685B6A022B62
:102CC0004CD12C4B1A682B4B2E490A401A60FEF748
:102CD0000DFF03003B6108E0FEF708FF02003B69BF
:102CE000D31A022B01D9032363E0224B1A688023F5
:102CF0009B041340F0D11F4BDB6A0F229343190052
:102D00007B681A6B1B4B0A43DA621A4B5B681E4ADC
:102D1000134019007B68DA6A7B689B6A1A43154B7B
:102D20000A435A60134B1A68124B802149040A4324
:102D30001A60FEF7DBFE03003B6108E0FEF7D6FEFB
:102D400002003B69D31A022B01D9032331E0094B5E
:102D50001A6880239B041340F0D029E0054B1A68C1
:102D6000044B08490A401A60FEF7C0FE03003B61AD
:102D700015E0C0460010024088130000FFFFFFEF7F
:102D8000FFFFFEFFFFFFFFFEFF7FC2FFFEF7AEFE6D
:102D900002003B69D31A022B01D9032309E0074B38
:102DA0001A6880239B041340F0D101E0012300E066
:102DB00000231800BD4606B080BDC046001002408A
:102DC00080B584B000AF786039600023FB607B4B36
:102DD0001B68012213403A689A4211D9774B1B684D
:102DE000012293431900754B3A680A431A60734BEA
:102DF0001B68012213403A689A4201D00123D8E0AF
:102E00007B681B680222134009D06D4B5B68F0227F
:102E1000934319007B689A68694B0A435A607B6840
:102E20001B680122134000D189E07B685B68012B9D
:102E300007D1634B1A6880239B02134020D10123E2
:102E4000B7E07B685B68022B07D15D4B1A68802373
:102E50009B04134014D10123ABE07B685B68032B18
:102E600007D1574B5A6B80235B02134008D10123D3
:102E70009FE0534B1B680222134001D1012398E0CD
:102E80004F4B5B680322934319007B685A684C4B95
:102E90000A435A60FEF72AFE0300FB607B685B680A
:102EA000012B11D109E0FEF721FE0200FB68D31AC5
:102EB000444A934201D903237BE0414B5B680C22D7
:102EC0001340042BEFD13AE07B685B68022B11D1F1
:102ED00009E0FEF70BFE0200FB68D31A394A934261
:102EE00001D9032365E0364B5B680C221340082BA5
:102EF000EFD124E07B685B68032B1BD109E0FEF770
:102F0000F5FD0200FB68D31A2E4A934201D9032330
:102F10004FE02B4B5B680C2213400C2BEFD10EE0E3
:102F2000FEF7E4FD0200FB68D31A264A934201D95A
:102F300003233EE0224B5B680C221340F0D11F4B71
:102F40001B68012213403A689A4211D21B4B1B683E
:102F5000012293431900194B3A680A431A60174B30
:102F60001B68012213403A689A4201D0012320E0F5
:102F70007B681B680422134009D0114B5B68124A1E
:102F8000134019007B68DA680D4B0A435A6000F061
:102F900021F801000A4B5B681B090F2213400B4A02
:102FA000D35C0A00DA400A4B1A600020FEF775FD78
:102FB00000231800BD4604B080BDC046002002407A
:102FC0000010024088130000FFF8FFFFC433000820
:102FD0000000002090B58FB000AF1423FB18384AD2
:102FE00013CA13C312681A603B1D364A13CA13C3AF
:102FF00012681A600023FB620023BB6200237B631C
:1030000000237B6200233B632F4B5B68FB62FB6A00
:103010000C2213400C2B47D049D8042B02D0082B8C
:1030200003D044E0294B3B6344E0FB6A9B0C0F2236
:1030300013401422BA18D35C7B62234BDB6A0F2245
:1030400013403A1DD35CBB62FA6AC0235B021A408C
:1030500080235B029A4209D1B96A1C48FDF754F8F3
:1030600003001A007B6A53437B631AE0FA6AC023A9
:103070005B021A40C0235B029A4209D1B96A144824
:10308000FDF742F803001A007B6A53437B6308E0B4
:10309000B96A0E48FDF738F803001A007B6A5343FB
:1030A0007B637B6B3B6305E0094B3B6302E0074BB3
:1030B0003B63C0463B6B1800BD460FB090BDC04699
:1030C00018330008283300080010024000127A006C
:1030D000006CDC0280B500AF024B1B681800BD46D7
:1030E00080BDC0460000002080B500AF1A4B1A68B2
:1030F000194B01210A431A60174B5A68164B17499E
:103100000A405A60144B1A68134B15490A401A605A
:10311000114B1A68104B13490A401A600E4B5A683B
:103120000D4B11490A405A600B4BDA6A0A4B0F21CA
:103130008A43DA62084B1A6B074B0C490A401A6340
:10314000054B5A6B044B01218A435A63024B002200
:103150009A60C046BD4680BD001002400CB8FF0812
:10316000FFFFF6FEFFFFFBFFFFFFC0FF2CFEFFFF90
:1031700070B50C4D0C4E761BB61005D0002408CD52
:1031800001349847A642FAD100F0BAF8074D084E2C
:10319000761BB61005D0002408CD01349847A6420E
:1031A000FAD170BDD8330008D8330008D8330008EE
:1031B000E033000830B5032A0CD903000B439B070A
:1031C00019D103680C68A34215D1043A04300431C4
:1031D000032AF6D8551E002A0BD0002303E05A1C00
:1031E0009D4206D01300C25CCC5CA242F7D0101BFB
:1031F00000E0002030BD551EEFE7C046034B10B580
:10320000002B02D0024800F005F810BD00000000BD
:103210002532000810B5010000230022002000F034
:1032200019F810BD70B5074D074C641BA41005D0EC
:10323000013CA300EB589847002CF9D100F066F848
:1032400070BDC046E0330008E43300087047C04654
:103250007047C046F0B5D6464F464646C0B5264FE5
:1032600082B006003868924698468946FFF7EEFF1E
:10327000224B1B680193A423019A5B00D558002DB3
:103280002ED06C681F2C30DC002E0FD1631C6B60BD
:103290004B460234A40038686351FFF7D9FF002081
:1032A00002B0E0BCBA46B146A846F0BD88225146FD
:1032B0002800A300EB189950873AA2408930FF30CC
:1032C0000168114301608421404649005850022E94
:1032D000DCD12B008D33FF3319680A431A60D5E720
:1032E00015004D35FF35D550CBE73868FFF7B0FFF7
:1032F00001204042D4E7C04630040020D433000807
:10330000F8B5C046F8BC08BC9E467047F8B5C04644
:08331000F8BC08BC9E467047A2
:1033180002030405060708090A0B0C0D0E0F10100E
:103328000102030405060708090A0B0C0D0E0F100D
:10333800400000000095000048000001AA87000036
:103348005000000200FF00007700000000FF0000AE
:103358007A00000000FF00006940000000FF000044
:103368004D454D435244303042494E007C030008DD
:10337800AC030008CE03000844060008B4050008A2
:103388001A070008FE030008A6040008060400083F
:103398001E04000856040008640400087A040008A3
:1033A8004C050008540500085C0500086405000881
:1033B8006C050008740500087C0500080000000082
:1033C80000000000010203040607080908000020A5
:0833D800FD310008E9000008C6
:0433E000C100000820
:1033E40000127A000000000000000000F402002037
:1033F4005C030020C4030020000000000000000063
:1034040000000000000000000000000000000000B8
:1034140000000000000000000000000000000000A8
:103424000000000000000000000000000000000098
:103434000000000000000000000000000000000088
:103444000000000000000000000000000000000078
:103454000000000000000000000000000000000068
:103464000000000000000000000000000000000058
:103474000000000000000000000000000000000048
:103484000000000000000000000000000000000038
:1034940001000000000000000E33CDAB34126DE6D5
:1034A400ECDE05000B00000000000000000000003E
:1034B4000000000000000000000000000000000008
:1034C40000000000000000000000000000000000F8
:1034D40000000000000000000000000000000000E8
:1034E40000000000000000000000000000000000D8
:04381400100B002075
:0400000508000221CC
:00000001FF
